{
  "_format": "hh-sol-artifact-1",
  "contractName": "VaultFactory",
  "sourceName": "contracts/VaultFactory.sol",
  "abi": [
    {
      "anonymous": false,
      "inputs": [
        {
          "indexed": false,
          "internalType": "address",
          "name": "vault",
          "type": "address"
        },
        {
          "indexed": false,
          "internalType": "address",
          "name": "grantee",
          "type": "address"
        },
        {
          "indexed": false,
          "internalType": "uint256",
          "name": "totalMilestones",
          "type": "uint256"
        }
      ],
      "name": "VaultCreated",
      "type": "event"
    },
    {
      "inputs": [
        {
          "internalType": "address",
          "name": "grantee",
          "type": "address"
        },
        {
          "internalType": "uint256",
          "name": "totalMilestones",
          "type": "uint256"
        }
      ],
      "name": "createVault",
      "outputs": [],
      "stateMutability": "nonpayable",
      "type": "function"
    },
    {
      "inputs": [
        {
          "internalType": "uint256",
          "name": "",
          "type": "uint256"
        }
      ],
      "name": "deployedVaults",
      "outputs": [
        {
          "internalType": "address",
          "name": "",
          "type": "address"
        }
      ],
      "stateMutability": "view",
      "type": "function"
    },
    {
      "inputs": [],
      "name": "getAllVaults",
      "outputs": [
        {
          "internalType": "address[]",
          "name": "",
          "type": "address[]"
        }
      ],
      "stateMutability": "view",
      "type": "function"
    }
  ],
  "bytecode": "0x6080604052348015600f57600080fd5b506107ff8061001f6000396000f3fe608060405234801561001057600080fd5b50600436106100415760003560e01c80630ac214df146100465780635f76dfc01461007657806397331bf91461008b575b600080fd5b610059610054366004610211565b6100a0565b6040516001600160a01b0390911681526020015b60405180910390f35b61008961008436600461022a565b6100ca565b005b6100936101a2565b60405161006d9190610262565b600081815481106100b057600080fd5b6000918252602090912001546001600160a01b0316905081565b600082826040516100da90610204565b6001600160a01b0390921682526020820152604001604051809103906000f08015801561010b573d6000803e3d6000fd5b50600080546001810182559080527f290decd9548b62a8d60345a988386fc84ba6bc95484008f6362f93160ef3e5630180546001600160a01b0319166001600160a01b038381169182179092556040805191825291861660208201529081018490529091507f0b045af6aff86dd2cda5342fd0329a354dc66759ff1eda00d7ecf13a76c7fb3b9060600160405180910390a1505050565b606060008054806020026020016040519081016040528092919081815260200182805480156101fa57602002820191906000526020600020905b81546001600160a01b031681526001909101906020018083116101dc575b5050505050905090565b61051b806102af83390190565b60006020828403121561022357600080fd5b5035919050565b6000806040838503121561023d57600080fd5b82356001600160a01b038116811461025457600080fd5b946020939093013593505050565b602080825282518282018190526000918401906040840190835b818110156102a35783516001600160a01b031683526020938401939092019160010161027c565b50909594505050505056fe6080604052348015600f57600080fd5b5060405161051b38038061051b833981016040819052602c916064565b60008054336001600160a01b031991821617909155600180549091166001600160a01b0393909316929092178255600355600255609c565b60008060408385031215607657600080fd5b82516001600160a01b0381168114608c57600080fd5b6020939093015192949293505050565b610470806100ab6000396000f3fe6080604052600436106100915760003560e01c8063b030481311610059578063b030481314610163578063d5f5207614610179578063f7800e69146101b1578063f851a440146101b9578063fafb2330146101d957600080fd5b806329315ea71461009657806339a4e2d2146100b85780634757ace4146100e15780636346b593146101215780637211e1ec1461014e575b600080fd5b3480156100a257600080fd5b506100b66100b13660046103b5565b6101f9565b005b3480156100c457600080fd5b506100ce60035481565b6040519081526020015b60405180910390f35b3480156100ed57600080fd5b506101116100fc3660046103b5565b60046020526000908152604090205460ff1681565b60405190151581526020016100d8565b34801561012d57600080fd5b506100ce61013c3660046103b5565b60056020526000908152604090205481565b34801561015a57600080fd5b50610111610337565b34801561016f57600080fd5b506100ce60025481565b34801561018557600080fd5b50600154610199906001600160a01b031681565b6040516001600160a01b0390911681526020016100d8565b6100b661034d565b3480156101c557600080fd5b50600054610199906001600160a01b031681565b3480156101e557600080fd5b506100b66101f43660046103ce565b610379565b6000546001600160a01b0316331461022c5760405162461bcd60e51b8152600401610223906103f0565b60405180910390fd5b600254811461026c5760405162461bcd60e51b815260206004820152600c60248201526b27baba1037b31037b93232b960a11b6044820152606401610223565b60008181526004602052604090205460ff16156102bf5760405162461bcd60e51b8152602060048201526011602482015270105b1c9958591e4818dbdb5c1b195d1959607a1b6044820152606401610223565b6000818152600460209081526040808320805460ff191660019081179091555460059092528083205490516001600160a01b039092169281156108fc029290818181858888f1935050505015801561031b573d6000803e3d6000fd5b5060016002600082825461032f9190610413565b909155505050565b60006103464262278d00610413565b4211905090565b6000546001600160a01b031633146103775760405162461bcd60e51b8152600401610223906103f0565b565b6000546001600160a01b031633146103a35760405162461bcd60e51b8152600401610223906103f0565b60009182526005602052604090912055565b6000602082840312156103c757600080fd5b5035919050565b600080604083850312156103e157600080fd5b50508035926020909101359150565b6020808252600990820152682737ba1030b236b4b760b91b604082015260600190565b8082018082111561043457634e487b7160e01b600052601160045260246000fd5b9291505056fea26469706673582212203796ef79d6f4f00ef7b4fe44cbdb33dda98670e7439e89883a8a40c20f47b08064736f6c634300081c0033a26469706673582212201f4693707d6f75af7ec206f4ba6ff7fc365ec0803c95f35d8bcc999e5c6a008464736f6c634300081c0033",
  "linkReferences": {},
  "deployedLinkReferences": {}
}